{
  "_format": "hh-sol-artifact-1",
  "contractName": "FixedToken",
  "sourceName": "contracts/FixedToken.sol",
  "abi": [
    {
      "inputs": [],
      "stateMutability": "nonpayable",
      "type": "constructor"
    },
    {
      "anonymous": false,
      "inputs": [
        {
          "indexed": true,
          "internalType": "address",
          "name": "owner",
          "type": "address"
        },
        {
          "indexed": true,
          "internalType": "address",
          "name": "spender",
          "type": "address"
        },
        {
          "indexed": false,
          "internalType": "uint256",
          "name": "value",
          "type": "uint256"
        }
      ],
      "name": "Approval",
      "type": "event"
    },
    {
      "anonymous": false,
      "inputs": [
        {
          "indexed": true,
          "internalType": "address",
          "name": "previousOwner",
          "type": "address"
        },
        {
          "indexed": true,
          "internalType": "address",
          "name": "newOwner",
          "type": "address"
        }
      ],
      "name": "OwnershipTransferred",
      "type": "event"
    },
    {
      "anonymous": false,
      "inputs": [
        {
          "indexed": true,
          "internalType": "address",
          "name": "from",
          "type": "address"
        },
        {
          "indexed": true,
          "internalType": "address",
          "name": "to",
          "type": "address"
        },
        {
          "indexed": false,
          "internalType": "uint256",
          "name": "value",
          "type": "uint256"
        }
      ],
      "name": "Transfer",
      "type": "event"
    },
    {
      "inputs": [],
      "name": "TOTAL_SUPPLY",
      "outputs": [
        {
          "internalType": "uint256",
          "name": "",
          "type": "uint256"
        }
      ],
      "stateMutability": "view",
      "type": "function"
    },
    {
      "inputs": [
        {
          "internalType": "address",
          "name": "owner",
          "type": "address"
        },
        {
          "internalType": "address",
          "name": "spender",
          "type": "address"
        }
      ],
      "name": "allowance",
      "outputs": [
        {
          "internalType": "uint256",
          "name": "",
          "type": "uint256"
        }
      ],
      "stateMutability": "view",
      "type": "function"
    },
    {
      "inputs": [
        {
          "internalType": "address",
          "name": "spender",
          "type": "address"
        },
        {
          "internalType": "uint256",
          "name": "amount",
          "type": "uint256"
        }
      ],
      "name": "approve",
      "outputs": [
        {
          "internalType": "bool",
          "name": "",
          "type": "bool"
        }
      ],
      "stateMutability": "nonpayable",
      "type": "function"
    },
    {
      "inputs": [
        {
          "internalType": "address",
          "name": "account",
          "type": "address"
        }
      ],
      "name": "balanceOf",
      "outputs": [
        {
          "internalType": "uint256",
          "name": "",
          "type": "uint256"
        }
      ],
      "stateMutability": "view",
      "type": "function"
    },
    {
      "inputs": [
        {
          "internalType": "uint256",
          "name": "amount",
          "type": "uint256"
        }
      ],
      "name": "burn",
      "outputs": [],
      "stateMutability": "nonpayable",
      "type": "function"
    },
    {
      "inputs": [],
      "name": "decimals",
      "outputs": [
        {
          "internalType": "uint8",
          "name": "",
          "type": "uint8"
        }
      ],
      "stateMutability": "view",
      "type": "function"
    },
    {
      "inputs": [
        {
          "internalType": "address",
          "name": "spender",
          "type": "address"
        },
        {
          "internalType": "uint256",
          "name": "subtractedValue",
          "type": "uint256"
        }
      ],
      "name": "decreaseAllowance",
      "outputs": [
        {
          "internalType": "bool",
          "name": "",
          "type": "bool"
        }
      ],
      "stateMutability": "nonpayable",
      "type": "function"
    },
    {
      "inputs": [
        {
          "internalType": "address",
          "name": "spender",
          "type": "address"
        },
        {
          "internalType": "uint256",
          "name": "addedValue",
          "type": "uint256"
        }
      ],
      "name": "increaseAllowance",
      "outputs": [
        {
          "internalType": "bool",
          "name": "",
          "type": "bool"
        }
      ],
      "stateMutability": "nonpayable",
      "type": "function"
    },
    {
      "inputs": [
        {
          "internalType": "address",
          "name": "account",
          "type": "address"
        },
        {
          "internalType": "uint256",
          "name": "amount",
          "type": "uint256"
        }
      ],
      "name": "mint",
      "outputs": [],
      "stateMutability": "nonpayable",
      "type": "function"
    },
    {
      "inputs": [],
      "name": "name",
      "outputs": [
        {
          "internalType": "string",
          "name": "",
          "type": "string"
        }
      ],
      "stateMutability": "view",
      "type": "function"
    },
    {
      "inputs": [],
      "name": "owner",
      "outputs": [
        {
          "internalType": "address",
          "name": "",
          "type": "address"
        }
      ],
      "stateMutability": "view",
      "type": "function"
    },
    {
      "inputs": [],
      "name": "renounceOwnership",
      "outputs": [],
      "stateMutability": "nonpayable",
      "type": "function"
    },
    {
      "inputs": [],
      "name": "symbol",
      "outputs": [
        {
          "internalType": "string",
          "name": "",
          "type": "string"
        }
      ],
      "stateMutability": "view",
      "type": "function"
    },
    {
      "inputs": [],
      "name": "totalSupply",
      "outputs": [
        {
          "internalType": "uint256",
          "name": "",
          "type": "uint256"
        }
      ],
      "stateMutability": "view",
      "type": "function"
    },
    {
      "inputs": [
        {
          "internalType": "address",
          "name": "recipient",
          "type": "address"
        },
        {
          "internalType": "uint256",
          "name": "amount",
          "type": "uint256"
        }
      ],
      "name": "transfer",
      "outputs": [
        {
          "internalType": "bool",
          "name": "",
          "type": "bool"
        }
      ],
      "stateMutability": "nonpayable",
      "type": "function"
    },
    {
      "inputs": [
        {
          "internalType": "address",
          "name": "from",
          "type": "address"
        },
        {
          "internalType": "address",
          "name": "to",
          "type": "address"
        },
        {
          "internalType": "uint256",
          "name": "amount",
          "type": "uint256"
        }
      ],
      "name": "transferFrom",
      "outputs": [
        {
          "internalType": "bool",
          "name": "",
          "type": "bool"
        }
      ],
      "stateMutability": "nonpayable",
      "type": "function"
    },
    {
      "inputs": [
        {
          "internalType": "address",
          "name": "newOwner",
          "type": "address"
        }
      ],
      "name": "transferOwnership",
      "outputs": [],
      "stateMutability": "nonpayable",
      "type": "function"
    }
  ],
  "bytecode": "0x6080604052620000146200011c60201b60201c565b600a6200002291906200055b565b6103e862000031919062000698565b6006553480156200004157600080fd5b506040518060400160405280600b81526020017f466978656420546f6b656e0000000000000000000000000000000000000000008152506040518060400160405280600281526020017f46540000000000000000000000000000000000000000000000000000000000008152508160039080519060200190620000c69291906200036b565b508060049080519060200190620000df9291906200036b565b50505062000102620000f66200012560201b60201c565b6200012d60201b60201c565b6200011633600654620001f360201b60201c565b620007da565b60006012905090565b600033905090565b6000600560009054906101000a900473ffffffffffffffffffffffffffffffffffffffff16905081600560006101000a81548173ffffffffffffffffffffffffffffffffffffffff021916908373ffffffffffffffffffffffffffffffffffffffff1602179055508173ffffffffffffffffffffffffffffffffffffffff168173ffffffffffffffffffffffffffffffffffffffff167f8be0079c531659141344cd1fd0a4f28419497f9722a3daafe3b4186f6b6457e060405160405180910390a35050565b600073ffffffffffffffffffffffffffffffffffffffff168273ffffffffffffffffffffffffffffffffffffffff16141562000266576040517f08c379a00000000000000000000000000000000000000000000000000000000081526004016200025d9062000453565b60405180910390fd5b6200027a600083836200036160201b60201c565b80600260008282546200028e9190620004a3565b92505081905550806000808473ffffffffffffffffffffffffffffffffffffffff1673ffffffffffffffffffffffffffffffffffffffff168152602001908152602001600020600082825401925050819055508173ffffffffffffffffffffffffffffffffffffffff16600073ffffffffffffffffffffffffffffffffffffffff167fddf252ad1be2c89b69c2b068fc378daa952ba7f163c4a11628f55a4df523b3ef8360405162000341919062000475565b60405180910390a36200035d600083836200036660201b60201c565b5050565b505050565b505050565b828054620003799062000710565b90600052602060002090601f0160209004810192826200039d5760008555620003e9565b82601f10620003b857805160ff1916838001178555620003e9565b82800160010185558215620003e9579182015b82811115620003e8578251825591602001919060010190620003cb565b5b509050620003f89190620003fc565b5090565b5b8082111562000417576000816000905550600101620003fd565b5090565b60006200042a601f8362000492565b91506200043782620007b1565b602082019050919050565b6200044d81620006f9565b82525050565b600060208201905081810360008301526200046e816200041b565b9050919050565b60006020820190506200048c600083018462000442565b92915050565b600082825260208201905092915050565b6000620004b082620006f9565b9150620004bd83620006f9565b9250827fffffffffffffffffffffffffffffffffffffffffffffffffffffffffffffffff03821115620004f557620004f462000746565b5b828201905092915050565b6000808291508390505b600185111562000552578086048111156200052a576200052962000746565b5b60018516156200053a5780820291505b80810290506200054a85620007a4565b94506200050a565b94509492505050565b60006200056882620006f9565b9150620005758362000703565b9250620005a47fffffffffffffffffffffffffffffffffffffffffffffffffffffffffffffffff8484620005ac565b905092915050565b600082620005be576001905062000691565b81620005ce576000905062000691565b8160018114620005e75760028114620005f25762000628565b600191505062000691565b60ff84111562000607576200060662000746565b5b8360020a91508482111562000621576200062062000746565b5b5062000691565b5060208310610133831016604e8410600b8410161715620006625782820a9050838111156200065c576200065b62000746565b5b62000691565b62000671848484600162000500565b925090508184048111156200068b576200068a62000746565b5b81810290505b9392505050565b6000620006a582620006f9565b9150620006b283620006f9565b9250817fffffffffffffffffffffffffffffffffffffffffffffffffffffffffffffffff0483118215151615620006ee57620006ed62000746565b5b828202905092915050565b6000819050919050565b600060ff82169050919050565b600060028204905060018216806200072957607f821691505b6020821081141562000740576200073f62000775565b5b50919050565b7f4e487b7100000000000000000000000000000000000000000000000000000000600052601160045260246000fd5b7f4e487b7100000000000000000000000000000000000000000000000000000000600052602260045260246000fd5b60008160011c9050919050565b7f45524332303a206d696e7420746f20746865207a65726f206164647265737300600082015250565b611d7a80620007ea6000396000f3fe608060405234801561001057600080fd5b506004361061010b5760003560e01c806370a08231116100a257806395d89b411161007157806395d89b41146102a8578063a457c2d7146102c6578063a9059cbb146102f6578063dd62ed3e14610326578063f2fde38b146103565761010b565b806370a0823114610232578063715018a6146102625780638da5cb5b1461026c578063902d55a51461028a5761010b565b8063313ce567116100de578063313ce567146101ac57806339509351146101ca57806340c10f19146101fa57806342966c68146102165761010b565b806306fdde0314610110578063095ea7b31461012e57806318160ddd1461015e57806323b872dd1461017c575b600080fd5b610118610372565b604051610125919061159b565b60405180910390f35b610148600480360381019061014391906112a1565b610404565b6040516101559190611580565b60405180910390f35b610166610427565b604051610173919061177d565b60405180910390f35b61019660048036038101906101919190611252565b610431565b6040516101a39190611580565b60405180910390f35b6101b4610460565b6040516101c19190611798565b60405180910390f35b6101e460048036038101906101df91906112a1565b610469565b6040516101f19190611580565b60405180910390f35b610214600480360381019061020f91906112a1565b6104a0565b005b610230600480360381019061022b91906112dd565b6104b6565b005b61024c600480360381019061024791906111ed565b6104c3565b604051610259919061177d565b60405180910390f35b61026a61050b565b005b61027461051f565b6040516102819190611565565b60405180910390f35b610292610549565b60405161029f919061177d565b60405180910390f35b6102b061054f565b6040516102bd919061159b565b60405180910390f35b6102e060048036038101906102db91906112a1565b6105e1565b6040516102ed9190611580565b60405180910390f35b610310600480360381019061030b91906112a1565b610658565b60405161031d9190611580565b60405180910390f35b610340600480360381019061033b9190611216565b610715565b60405161034d919061177d565b60405180910390f35b610370600480360381019061036b91906111ed565b61079c565b005b606060038054610381906118e1565b80601f01602080910402602001604051908101604052809291908181526020018280546103ad906118e1565b80156103fa5780601f106103cf576101008083540402835291602001916103fa565b820191906000526020600020905b8154815290600101906020018083116103dd57829003601f168201915b5050505050905090565b60008061040f610820565b905061041c818585610828565b600191505092915050565b6000600254905090565b60008061043c610820565b90506104498582856109f3565b610454858585610a7f565b60019150509392505050565b60006012905090565b600080610474610820565b90506104958185856104868589610715565b61049091906117cf565b610828565b600191505092915050565b6104a8610cf7565b6104b28282610d75565b5050565b6104c03382610ecc565b50565b60008060008373ffffffffffffffffffffffffffffffffffffffff1673ffffffffffffffffffffffffffffffffffffffff168152602001908152602001600020549050919050565b610513610cf7565b61051d600061109a565b565b6000600560009054906101000a900473ffffffffffffffffffffffffffffffffffffffff16905090565b60065481565b60606004805461055e906118e1565b80601f016020809104026020016040519081016040528092919081815260200182805461058a906118e1565b80156105d75780601f106105ac576101008083540402835291602001916105d7565b820191906000526020600020905b8154815290600101906020018083116105ba57829003601f168201915b5050505050905090565b6000806105ec610820565b905060006105fa8286610715565b90508381101561063f576040517f08c379a00000000000000000000000000000000000000000000000000000000081526004016106369061173d565b60405180910390fd5b61064c8286868403610828565b60019250505092915050565b6000610663336104c3565b8211156106a5576040517f08c379a000000000000000000000000000000000000000000000000000000000815260040161069c9061167d565b60405180910390fd5b60006106b0336104c3565b905060006106be8285611160565b90506106cb338686610a7f565b806106d5336104c3565b14610709577f4e487b7100000000000000000000000000000000000000000000000000000000600052600160045260246000fd5b60019250505092915050565b6000600160008473ffffffffffffffffffffffffffffffffffffffff1673ffffffffffffffffffffffffffffffffffffffff16815260200190815260200160002060008373ffffffffffffffffffffffffffffffffffffffff1673ffffffffffffffffffffffffffffffffffffffff16815260200190815260200160002054905092915050565b6107a4610cf7565b600073ffffffffffffffffffffffffffffffffffffffff168173ffffffffffffffffffffffffffffffffffffffff161415610814576040517f08c379a000000000000000000000000000000000000000000000000000000000815260040161080b906115fd565b60405180910390fd5b61081d8161109a565b50565b600033905090565b600073ffffffffffffffffffffffffffffffffffffffff168373ffffffffffffffffffffffffffffffffffffffff161415610898576040517f08c379a000000000000000000000000000000000000000000000000000000000815260040161088f9061171d565b60405180910390fd5b600073ffffffffffffffffffffffffffffffffffffffff168273ffffffffffffffffffffffffffffffffffffffff161415610908576040517f08c379a00000000000000000000000000000000000000000000000000000000081526004016108ff9061161d565b60405180910390fd5b80600160008573ffffffffffffffffffffffffffffffffffffffff1673ffffffffffffffffffffffffffffffffffffffff16815260200190815260200160002060008473ffffffffffffffffffffffffffffffffffffffff1673ffffffffffffffffffffffffffffffffffffffff168152602001908152602001600020819055508173ffffffffffffffffffffffffffffffffffffffff168373ffffffffffffffffffffffffffffffffffffffff167f8c5be1e5ebec7d5bd14f71427d1e84f3dd0314c0f7b2291e5b200ac8c7c3b925836040516109e6919061177d565b60405180910390a3505050565b60006109ff8484610715565b90507fffffffffffffffffffffffffffffffffffffffffffffffffffffffffffffffff8114610a795781811015610a6b576040517f08c379a0000000000000000000000000000000000000000000000000000000008152600401610a629061163d565b60405180910390fd5b610a788484848403610828565b5b50505050565b600073ffffffffffffffffffffffffffffffffffffffff168373ffffffffffffffffffffffffffffffffffffffff161415610aef576040517f08c379a0000000000000000000000000000000000000000000000000000000008152600401610ae6906116fd565b60405180910390fd5b600073ffffffffffffffffffffffffffffffffffffffff168273ffffffffffffffffffffffffffffffffffffffff161415610b5f576040517f08c379a0000000000000000000000000000000000000000000000000000000008152600401610b56906115bd565b60405180910390fd5b610b6a8383836111b9565b60008060008573ffffffffffffffffffffffffffffffffffffffff1673ffffffffffffffffffffffffffffffffffffffff16815260200190815260200160002054905081811015610bf0576040517f08c379a0000000000000000000000000000000000000000000000000000000008152600401610be79061165d565b60405180910390fd5b8181036000808673ffffffffffffffffffffffffffffffffffffffff1673ffffffffffffffffffffffffffffffffffffffff16815260200190815260200160002081905550816000808573ffffffffffffffffffffffffffffffffffffffff1673ffffffffffffffffffffffffffffffffffffffff168152602001908152602001600020600082825401925050819055508273ffffffffffffffffffffffffffffffffffffffff168473ffffffffffffffffffffffffffffffffffffffff167fddf252ad1be2c89b69c2b068fc378daa952ba7f163c4a11628f55a4df523b3ef84604051610cde919061177d565b60405180910390a3610cf18484846111be565b50505050565b610cff610820565b73ffffffffffffffffffffffffffffffffffffffff16610d1d61051f565b73ffffffffffffffffffffffffffffffffffffffff1614610d73576040517f08c379a0000000000000000000000000000000000000000000000000000000008152600401610d6a906116bd565b60405180910390fd5b565b600073ffffffffffffffffffffffffffffffffffffffff168273ffffffffffffffffffffffffffffffffffffffff161415610de5576040517f08c379a0000000000000000000000000000000000000000000000000000000008152600401610ddc9061175d565b60405180910390fd5b610df1600083836111b9565b8060026000828254610e0391906117cf565b92505081905550806000808473ffffffffffffffffffffffffffffffffffffffff1673ffffffffffffffffffffffffffffffffffffffff168152602001908152602001600020600082825401925050819055508173ffffffffffffffffffffffffffffffffffffffff16600073ffffffffffffffffffffffffffffffffffffffff167fddf252ad1be2c89b69c2b068fc378daa952ba7f163c4a11628f55a4df523b3ef83604051610eb4919061177d565b60405180910390a3610ec8600083836111be565b5050565b600073ffffffffffffffffffffffffffffffffffffffff168273ffffffffffffffffffffffffffffffffffffffff161415610f3c576040517f08c379a0000000000000000000000000000000000000000000000000000000008152600401610f33906116dd565b60405180910390fd5b610f48826000836111b9565b60008060008473ffffffffffffffffffffffffffffffffffffffff1673ffffffffffffffffffffffffffffffffffffffff16815260200190815260200160002054905081811015610fce576040517f08c379a0000000000000000000000000000000000000000000000000000000008152600401610fc5906115dd565b60405180910390fd5b8181036000808573ffffffffffffffffffffffffffffffffffffffff1673ffffffffffffffffffffffffffffffffffffffff1681526020019081526020016000208190555081600260008282540392505081905550600073ffffffffffffffffffffffffffffffffffffffff168373ffffffffffffffffffffffffffffffffffffffff167fddf252ad1be2c89b69c2b068fc378daa952ba7f163c4a11628f55a4df523b3ef84604051611081919061177d565b60405180910390a3611095836000846111be565b505050565b6000600560009054906101000a900473ffffffffffffffffffffffffffffffffffffffff16905081600560006101000a81548173ffffffffffffffffffffffffffffffffffffffff021916908373ffffffffffffffffffffffffffffffffffffffff1602179055508173ffffffffffffffffffffffffffffffffffffffff168173ffffffffffffffffffffffffffffffffffffffff167f8be0079c531659141344cd1fd0a4f28419497f9722a3daafe3b4186f6b6457e060405160405180910390a35050565b6000828211156111a5576040517f08c379a000000000000000000000000000000000000000000000000000000000815260040161119c9061169d565b60405180910390fd5b81836111b19190611825565b905092915050565b505050565b505050565b6000813590506111d281611d16565b92915050565b6000813590506111e781611d2d565b92915050565b6000602082840312156111ff57600080fd5b600061120d848285016111c3565b91505092915050565b6000806040838503121561122957600080fd5b6000611237858286016111c3565b9250506020611248858286016111c3565b9150509250929050565b60008060006060848603121561126757600080fd5b6000611275868287016111c3565b9350506020611286868287016111c3565b9250506040611297868287016111d8565b9150509250925092565b600080604083850312156112b457600080fd5b60006112c2858286016111c3565b92505060206112d3858286016111d8565b9150509250929050565b6000602082840312156112ef57600080fd5b60006112fd848285016111d8565b91505092915050565b61130f81611859565b82525050565b61131e8161186b565b82525050565b600061132f826117b3565b61133981856117be565b93506113498185602086016118ae565b61135281611971565b840191505092915050565b600061136a6023836117be565b915061137582611982565b604082019050919050565b600061138d6022836117be565b9150611398826119d1565b604082019050919050565b60006113b06026836117be565b91506113bb82611a20565b604082019050919050565b60006113d36022836117be565b91506113de82611a6f565b604082019050919050565b60006113f6601d836117be565b915061140182611abe565b602082019050919050565b60006114196026836117be565b915061142482611ae7565b604082019050919050565b600061143c6014836117be565b915061144782611b36565b602082019050919050565b600061145f601e836117be565b915061146a82611b5f565b602082019050919050565b60006114826020836117be565b915061148d82611b88565b602082019050919050565b60006114a56021836117be565b91506114b082611bb1565b604082019050919050565b60006114c86025836117be565b91506114d382611c00565b604082019050919050565b60006114eb6024836117be565b91506114f682611c4f565b604082019050919050565b600061150e6025836117be565b915061151982611c9e565b604082019050919050565b6000611531601f836117be565b915061153c82611ced565b602082019050919050565b61155081611897565b82525050565b61155f816118a1565b82525050565b600060208201905061157a6000830184611306565b92915050565b60006020820190506115956000830184611315565b92915050565b600060208201905081810360008301526115b58184611324565b905092915050565b600060208201905081810360008301526115d68161135d565b9050919050565b600060208201905081810360008301526115f681611380565b9050919050565b60006020820190508181036000830152611616816113a3565b9050919050565b60006020820190508181036000830152611636816113c6565b9050919050565b60006020820190508181036000830152611656816113e9565b9050919050565b600060208201905081810360008301526116768161140c565b9050919050565b600060208201905081810360008301526116968161142f565b9050919050565b600060208201905081810360008301526116b681611452565b9050919050565b600060208201905081810360008301526116d681611475565b9050919050565b600060208201905081810360008301526116f681611498565b9050919050565b60006020820190508181036000830152611716816114bb565b9050919050565b60006020820190508181036000830152611736816114de565b9050919050565b6000602082019050818103600083015261175681611501565b9050919050565b6000602082019050818103600083015261177681611524565b9050919050565b60006020820190506117926000830184611547565b92915050565b60006020820190506117ad6000830184611556565b92915050565b600081519050919050565b600082825260208201905092915050565b60006117da82611897565b91506117e583611897565b9250827fffffffffffffffffffffffffffffffffffffffffffffffffffffffffffffffff0382111561181a57611819611913565b5b828201905092915050565b600061183082611897565b915061183b83611897565b92508282101561184e5761184d611913565b5b828203905092915050565b600061186482611877565b9050919050565b60008115159050919050565b600073ffffffffffffffffffffffffffffffffffffffff82169050919050565b6000819050919050565b600060ff82169050919050565b60005b838110156118cc5780820151818401526020810190506118b1565b838111156118db576000848401525b50505050565b600060028204905060018216806118f957607f821691505b6020821081141561190d5761190c611942565b5b50919050565b7f4e487b7100000000000000000000000000000000000000000000000000000000600052601160045260246000fd5b7f4e487b7100000000000000000000000000000000000000000000000000000000600052602260045260246000fd5b6000601f19601f8301169050919050565b7f45524332303a207472616e7366657220746f20746865207a65726f206164647260008201527f6573730000000000000000000000000000000000000000000000000000000000602082015250565b7f45524332303a206275726e20616d6f756e7420657863656564732062616c616e60008201527f6365000000000000000000000000000000000000000000000000000000000000602082015250565b7f4f776e61626c653a206e6577206f776e657220697320746865207a65726f206160008201527f6464726573730000000000000000000000000000000000000000000000000000602082015250565b7f45524332303a20617070726f766520746f20746865207a65726f20616464726560008201527f7373000000000000000000000000000000000000000000000000000000000000602082015250565b7f45524332303a20696e73756666696369656e7420616c6c6f77616e6365000000600082015250565b7f45524332303a207472616e7366657220616d6f756e742065786365656473206260008201527f616c616e63650000000000000000000000000000000000000000000000000000602082015250565b7f496e73756666696369656e742062616c616e6365000000000000000000000000600082015250565b7f536166654d6174683a207375627472616374696f6e206f766572666c6f770000600082015250565b7f4f776e61626c653a2063616c6c6572206973206e6f7420746865206f776e6572600082015250565b7f45524332303a206275726e2066726f6d20746865207a65726f2061646472657360008201527f7300000000000000000000000000000000000000000000000000000000000000602082015250565b7f45524332303a207472616e736665722066726f6d20746865207a65726f20616460008201527f6472657373000000000000000000000000000000000000000000000000000000602082015250565b7f45524332303a20617070726f76652066726f6d20746865207a65726f2061646460008201527f7265737300000000000000000000000000000000000000000000000000000000602082015250565b7f45524332303a2064656372656173656420616c6c6f77616e63652062656c6f7760008201527f207a65726f000000000000000000000000000000000000000000000000000000602082015250565b7f45524332303a206d696e7420746f20746865207a65726f206164647265737300600082015250565b611d1f81611859565b8114611d2a57600080fd5b50565b611d3681611897565b8114611d4157600080fd5b5056fea264697066735822122005b574df52e9947ac15256474b562b4be4871505213f4858dcc7ead1011b0bf564736f6c63430008010033",
  "linkReferences": {},
  "deployedLinkReferences": {}
}